:020000040800F2
:10000000FCFF0020E51F0000991E0000991E000063
:10001000991E0000991E0000991E0000991E000004
:10002000991E0000991E0000991E0000991E0000F4
:10003000991E0000991E0000991E0000991E0000E4
:10004000991E0000991E0000991E0000991E0000D4
:10005000991E0000991E0000991E0000991E0000C4
:10006000991E0000991E0000991E0000991E0000B4
:10007000991E0000991E0000991E0000991E0000A4
:10008000991E0000991E0000991E0000991E000094
:10009000991E0000991E0000991E0000991E000084
:1000A000991E0000991E0000991E0000991E000074
:1000B000991E0000991E0000991E0000991E000064
:1000C000991E0000991E0000991E0000991E000054
:1000D000991E0000991E0000991E0000991E000044
:1000E000991E0000991E0000991E0000991E000034
:1000F000991E0000991E0000991E0000991E000024
:10010000991E0000991E0000991E0000991E000013
:10011000991E0000991E0000991E0000991E000003
:10012000991E0000991E0000991E0000991E0000F3
:10013000991E0000991E0000991E0000991E0000E3
:10014000991E0000991E0000991E0000991E0000D3
:1001500081B0194900EA0101084600220EE004209E
:1001600022E0082020E010201EE020201CE040209B
:100170001AE0802018E040F2001015E00F49884294
:10018000EDD00F498842ECD00E498842EBD00E49A1
:100190008842EAD00D498842E9D00D498842E8D02A
:1001A0000C498842E7D010460B49096841EA000231
:1001B00009490A6001B0704700FCFFFF00080140D8
:1001C000000C0140001001400014014000180140E3
:1001D000001C0140002001401810024081B0CDF801
:1001E00000E08CB21546774B00EA03031E46184622
:1001F000FFF7AEFFB4F1FF0F0CD1734B9D4203D15B
:100200004FF033333360D9E0422D03D14FF0443304
:100210003360D3E04FF6FF739C4214D16A4B9D428A
:1002200007D14FF033333360341D4FF03333236045
:10023000C4E0422D07D14FF044333360341D4FF0FA
:1002400044332360BAE00021002005F001030BB124
:1002500000211DE005F0020333B105F4C0730BB1BA
:10026000082100E0042113E005F0040333B105F098
:1002700020030BB1042100E0002109E005F0080390
:1002800033B105F020030BB10C2100E00821FFE79A
:100290004E4B05EA03030BB1032009E005F400739C
:1002A0000BB1022004E005F480630BB10120FFE7ED
:1002B00005F00C030BB10143FFE704F0FF039BB211
:1002C000002B3BD0376800201FFA84F832462E46B8
:1002D00008282CD24FF0010303FA00F408EA0403C3
:1002E000A34222D185004FF00F03AB40DB4307EA66
:1002F000030401FA05F344EA03031D4606F481737F
:10030000B3F5817F05D102F214044FF0010383405D
:10031000236006F08203822B05D102F210044FF015
:100320000103834023602F46FFE7401CD0E717609E
:100330001FFA88F00F463146164602E00F4629465E
:10034000A0B2B0F1FF0F39D9331DD3F800800022DD
:10035000082A30D202F208044FF0010303FA04F431
:1003600000EA0403A34224D195004FF00F03AB40F1
:10037000DB4308EA030807FA05F348EA030801F437
:100380008173B3F5817F07D106F2140502F20804E8
:100390004FF00103A3402B6001F08203822B07D1B1
:1003A00006F2100502F208044FF00103A3402B608F
:1003B000FFE7521CCCE7331DC3F80080DDF800E0F6
:1003C00001B0704700FCFFFF14000800000808009F
:1003D00081B000F218010A68C2F3400181F0010106
:1003E000C9B2C8B201B0704781B000F214010A6806
:1003F00000F218010968090442EA0101084601B047
:100400007047FFFF01490860704700BFA481224286
:1004100001490860704700BFA0812242014908607D
:10042000704700BF9401214201490860704700BF36
:100430009C81214201490860704700BF9881214298
:1004400001490860704700BFA88122420149086045
:10045000704700BFB481224201490860704700BF65
:100460008801224201490860704700BF9001214283
:1004700001490860704700BFA80122420149086095
:10048000704700BF8001214201490860704700BFEA
:10049000B001224201490860704700BFAC0122420E
:1004A00001490860704700BF9881214201490860F6
:1004B000704700BF9481224201490860704700BF25
:1004C0009881224281B0CDF800E00B46FFF78CFF07
:1004D00000EA03029A4240F2000200D10122D0B2A7
:1004E000DDF800E001B0704781B0CDF800E04FF0DA
:1004F00000021949884207D118490B6818490A684F
:1005000018490A601C460BE01749884207D1174971
:100510000B6817490A6813490A601C4600E0144634
:1005200014490C6003461846FFF752FF70B9114991
:10053000096851B12CB905200A4C2468A047002055
:1005400005E0611E08460446FFE7ECE70120DDF800
:1005500000E001B0704700BF005400404800002098
:10056000B0000020AC000020005800404C000020EB
:10057000B40000205000002001490860704700BF0F
:100580009C81214201490860704700BFAC81224232
:1005900001490860704700BFA80122420149086074
:1005A000704700BFB881224201490860704700BF10
:1005B0008C01224201490860704700BFB08122428D
:1005C00001490860704700BFB0012242014908603C
:1005D000704700BFAC01224201480068704700BF6D
:1005E0009C00002083B0CDF800E000F0FF031A0962
:1005F000104603F00F02134614E0194A02921FE05E
:10060000184A02921CE0184A029219E0174A029214
:1006100016E0174A029213E0164A029210E0164AB8
:1006200002920DE00028E8D00128E9D00228EAD0A3
:100630000328EBD00428ECD00528EDD00628EED016
:10064000012212B29A40ADF8042002980A46BDF881
:100650000410FFF7C3FDDDF800E003B0704700BFF2
:1006600000080140000C014000100140001401404E
:1006700000180140001C01400020014081B00168C9
:10068000C1F3801001B0704781B00268C2F340111D
:1006900001B9FAE7011D096888B201B07047FFFF90
:1006A00083B0CDF800E003464FF0000026498B42AE
:1006B00006D126490C6826490A6826490A600BE0DB
:1006C00025498B4207D12549086825490A682149EF
:1006D0000A60044600E0044622490C60019402933B
:1006E0001846FFF701FF029B019C10B94FF6FF70FF
:1006F00025E00122196862F30821196003F2140150
:100700000A68C2F3402111B14FF6FF7017E0254689
:100710001C4615492046FFF7D5FE78B911490968EE
:1007200059B135B906200B4C2468A0474FF6FF702D
:1007300005E0691E08460546FFE7EAE70020DDF808
:1007400000E003B0704700BF0054004048000020A4
:10075000B0000020AC000020005800404C000020F9
:10076000B4000020500000200100030081B00168A7
:10077000C1F3401001B0704782B0CDF800E0CFB2B5
:1007800001469846029B4FF000064FF00005C44C0E
:10079000A14207D1C34CD4F80090C34C2568C34C88
:1007A00025600BE0C24CA14207D1C24C2068C24C6C
:1007B0002568BE4C2560814600E0A946BF4CC4F8C0
:1007C0000090F4E101F210057C00A4B244F00104B1
:1007D000A4B22C60019616464F46019A01F2140409
:1007E0002568C5F3400464B9B44C246844B127B902
:1007F0000320AE4C2468A047E2E1781E0746FFE7DD
:10080000ECE700250C6865F38A240C6001F21404FF
:10081000206800BF01F218042468240440EA04049C
:100820002046012B05D101250C6865F349240C6095
:1008300004E001250C6865F308240C609F4C2568D2
:100840009146984637460E469D493046FFF73AFE98
:1008500068B99A4C24684CB125B90320934C24689C
:10086000A047ADE16C1E20460546FFE7ECE707EB2D
:10087000090506F2100424682C70B8F1010F13D199
:100880008E4C216830460568C5F340245CB98B4C1A
:1008900024683CB121B90320844C2468A0478FE12F
:1008A000491EFFE7EFE712E0844C216830460568F7
:1008B000C5F300245CB9814C24683CB121B9032004
:1008C0007A4C2468A0477BE1491EFFE7EFE777E118
:1008D00001250C6865F38A240C6001250C6865F31A
:1008E000CB240C6001F210057C00A4B244F001049A
:1008F000A4B22C604F4601F214042568C5F34004ED
:1009000064B96E4C246844B127B90320674C24684D
:10091000A04755E1781E0746FFE7ECE701F2140413
:10092000206800BF01F21804246824042043002535
:100930000C6865F38A240C60604C276801F214048B
:100940002568C5F3800464B95C4C246844B127B9B8
:100950000320564C2468A04732E1781E0746FFE783
:10096000ECE7012B05D101250C6865F349240C60E7
:1009700004E001250C6865F308240C60951901F268
:10098000100424682C70741C151901F210042468DA
:100990002C70012B14D1494C22680D68C5F34024FA
:1009A00064B9464C246844B122B903203F4C246802
:1009B000A04705E1501E0246FFE7EEE7084613E0B8
:1009C0003E4C22680D68C5F3002464B93B4C246892
:1009D00044B122B90320354C2468A047F0E0501EF2
:1009E0000246FFE7EEE708460025046865F3CB24DE
:1009F0000460E5E001250C6865F38A240C6001F2CF
:100A000010057C00A4B244F00104A4B22C60464658
:100A1000C846894617461D462A494846FFF752FDF3
:100A200078B9264C24685CB1B8F1000F04D10320DA
:100A30001E4C2468A047C3E0A8F101008046FFE7F0
:100A4000EAE70021A8464A46B1463B46A9F103041D
:100A5000A14222D2194C25688A4617461E461849DB
:100A60003846FFF72FFD60B9144C246844B125B90E
:100A700003200E4C2468A047A2E0681E0546FFE74D
:100A8000EDE706EB0A0507F2100424682C700AF162
:100A90000104214633463A46D8E7084C00F014B822
:100AA0000054004048000020B0000020AC000020AE
:100AB000005800404C000020B400002050000020EE
:100AC0004000030002000300276801930B4616460E
:100AD0004246019906F214042568C5F3800464B9FE
:100AE000394C246844B127B90320384C2468A04706
:100AF00066E0781E0746FFE7ECE70025346865F3FB
:100B00008A243460CD1806F2100424682C70581C16
:100B10002D4C23681746024606F214042568C5F3D7
:100B2000800464B9284C246844B123B90320274CBD
:100B30002468A04744E0581E0346FFE7ECE7012F76
:100B400007D10125346865F34924346010463246E4
:100B500021E00125346865F3082434601A4CD4F888
:100B6000008017460D461A493046FFF7ABFC78B9AE
:100B7000154C24685CB1B8F1000F04D10320134C6C
:100B80002468A0471CE0A8F101008046FFE7EAE7DF
:100B90002946324638460D1802F2100424682C709B
:100BA000441C0D1902F2100424682C7008E0B8F1FE
:100BB000010F3FF407AEB8F1020F3FF489AE19E719
:100BC000DDF800E002B0704750000020AC000020CB
:100BD0000100030081B0CDF800E0012252B23E498D
:100BE0000A6000F268010B686FF0006103EA01021D
:100BF000144603F00061C90E0B4602F00041B1F14A
:100C0000004F02D135490A6801E035490A6804F409
:100C10007021090C0E464FF6FF7104EA01010D46E2
:100C200004F44011B1F5401F0DD16FF0706102EA7C
:100C300001010E462A490A686FF070610A4028498E
:100C40000A60324616E004F48011B1F5801F09D124
:100C50004FF00301B140C94302EA010141F0706164
:100C60000A4607E0610D090105FA01F1C9430A408E
:100C700042F070622BB1610D090105FA01F10A43DE
:100C8000FFE704F00041B1F1004F02D113490A60BF
:100C900001E013490A6040F2000A81464FEA8A01E6
:100CA00009EB01010968B1F1FF3F10D009F13401EE
:100CB0004FEA8A03C91809680A4609EB0301096863
:100CC00008461146FFF78EFC0AF1010AE6E7DDF857
:100CD00000E001B0704700BF000342421C00014029
:100CE0000400014082B0CDF800E0034619460191AE
:100CF000FFF772FC40F2E83100FB01F201990A6053
:100D00001F490978C1F30311C8B21E4909180878B0
:100D1000C0B21A1D1968C140116019490988C1F390
:100D2000022188B2174909180878C0B203F20802F4
:100D3000191D0968C140116011490988C1F3C22118
:100D400088B2104909180878C0B203F20C02191DC4
:100D50000968C14011600A490988C1F3813188B22C
:100D6000094909180978C8B203F2100203F20C010C
:100D70000968B1FBF0F11160DDF800E002B07047E6
:100D8000041002405A220000EC1D000081B0CDF892
:100D900000E00348FFF778FCDDF800E001B07047A1
:100DA0000044004081B0CDF800E00348FFF766FC46
:100DB000DDF800E001B070470038014081B0CDF8A7
:100DC00000E00348FFF76CFCDDF800E001B070477D
:100DD0000058004088B0CDF800E00E46554B9842D0
:100DE0000DD1012464B2544B1C60544C544B1C6014
:100DF000544C554B1C60554C554B1C600FE0554BEB
:100E000098420CD1012464B2534B1C60534C4C4BA0
:100E10001C60534C4C4B1C60524C4D4B1C6001965B
:100E200002901046FFF7D6FE0298019E031D1B6834
:100E30009CB26FF03F0304EA03039DB203AB019041
:100E40001846FFF74FFF0198059F059C464BB4FBE2
:100E5000F3F399B29BB245EA0304A4B2031D1C60EC
:100E60000024036864F30003036000223F4B9E42AA
:100E700012D87300B7FBF3F4A4B2042C02D20423FB
:100E80001C46FFE742EA04039AB200F220044B1C1E
:100E90009BB2236091B23FE0032306FB03F4B7FB50
:100EA000F4F31FFA83F8192306FB03F5B7FBF5F3F8
:100EB0001FFA83F908FB04F409FB05F33C1BFB1A3A
:100EC0009C4205D203237343B7FBF3F4A4B206E0BC
:100ED00019237343B7FBF3F4A4B244F4804440F6FF
:100EE000FF7304EA030313B944F00104FFE744F479
:100EF00000439BB21A4392B200F2200540F22C1339
:100F000001FB03F4A4B240F2E833B4FBF3F39BB269
:100F10005B1C9BB22B6091B200F21C031960002392
:100F200003600124036864F300030360DDF800E05C
:100F300008B0704700540040D4034242F110000052
:100F4000A00000200D100000A4000020FFFFFFFF04
:100F5000A800002000580040D8034242BD0D000008
:100F6000E90F0000FFFFFFFF40420F00A0860100D5
:100F700081B0CDF800E00348FFF7F8FBDDF800E0B2
:100F800001B070470038014081B0CDF800E003485F
:100F9000FFF77AFBDDF800E001B070470038014050
:100FA00081B0CDF800E00348FFF7E0FBDDF800E09A
:100FB00001B070470050004081B0CDF800E0034818
:100FC000FFF762FBDDF800E001B070470050004021
:100FD00081B0CDF800E00348FFF750FBDDF800E0FA
:100FE00001B07047004C004081B0CDF800E008B47B
:100FF00013460A46C1B20448FFF7BEFB01B0DDF854
:1010000000E001B0704700BF0058004081B0CDF84B
:1010100000E008B413460A46C1B20448FFF7ACFB2F
:1010200001B0DDF800E001B0704700BF005400409F
:1010300081B0CDF800E00348FFF720FBDDF800E0C9
:1010400001B070470050004081B0CDF800E0034887
:10105000FFF78CFBDDF800E001B07047004C00406A
:1010600081B0CDF800E00348FFF70EFBDDF800E0AB
:1010700001B070470048004081B0CDF800E003485F
:10108000FFF7FCFADDF800E001B0704700440040D3
:1010900081B0CDF800E00348FFF768FBDDF800E021
:1010A00001B070470044004081B0CDF800E0034833
:1010B000FFF7EAFADDF800E001B07047004C0040AD
:1010C00081B0CDF800E00348FFF7D8FADDF800E082
:1010D00001B070470048004081B0CDF800E00348FF
:1010E000FFF744FBDDF800E001B070470048004026
:1010F00081B0CDF800E00348FFF7D2FADDF800E058
:1011000001B070470054004089B0CDF800E083463C
:1011100098B28C46BDF824100A9E04ACADF80410B9
:10112000ADF808002046FFF7DDFDBDF80800BDF86A
:101130000410644CA34512D101256DB2624C2560A8
:10114000624D634C2560634D634C2560634D644C78
:101150002560644D644C2560079C039456E0634C05
:10116000A34512D101256DB2614C2560614D584CEB
:101170002560614D584C2560604D594C2560604D8F
:10118000594C2560069C039440E05E4CA34512D167
:1011900001256DB25C4C25605C4D4D4C25605C4D6D
:1011A0004D4C25605B4D4E4C25605B4D4E4C256093
:1011B000069C03942AE0594CA34512D101256DB237
:1011C000574C2560574D424C2560574D424C256089
:1011D000564D434C2560564D434C2560069C039468
:1011E00014E0544CA34511D101256DB2524C256039
:1011F000524D374C2560524D374C2560514D384C7F
:101200002560514D384C2560069C0394ADF80410C0
:10121000ADF808003046FFF7DDFCBDF80800BDF86A
:1012200004100BF1100500242C600BF110052C6844
:101230000C432C600BF10C0500242C6018B140F419
:10124000806080B2FFE70BF10C052C6804432C6032
:101250000BF10C060125346865F34D3434600BF155
:101260000C060125346865F3C30434600BF10C06E9
:101270000125346865F3820434600BF11405002401
:101280002C60039D192465434FEA8C04B5FBF4F7E9
:101290006424B7FBF4F42601350964246C433C1B39
:1012A000240104F232056424B5FBF4F404F00F04C5
:1012B00046EA04040BF10805A4B22C60DDF800E056
:1012C00009B07047003801403803424265140000FD
:1012D000B8000020890F0000BC000020710F000042
:1012E000C0000020A50D0000C40000200044004004
:1012F000C4034242891300008D0D000091100000CC
:101300007910000000480040C80342426D130000FD
:1013100061100000D9100000C1100000004C004016
:10132000CC03424249140000A910000049100000FB
:10133000D10F000000500040D0034242A51400002D
:10134000B90F0000A10F00003110000081B0ADF80E
:1013500000100146BDF800000B68C3F3C01202B9CB
:10136000FAE70A1D106001B07047FFFF81B0CDF8A9
:1013700000E081B20348FFF7E9FFDDF800E001B0CB
:10138000704700BF0048004081B0CDF800E081B256
:101390000348FFF7DBFFDDF800E001B0704700BF56
:1013A0000044004081B0CDF800E0019D2C4610B40F
:1013B00008B493B28AB201460348FFF7A5FE02B013
:1013C000DDF800E001B070470038014082B0CDF890
:1013D00000E040F20004ADF80440064C2468A04749
:1013E000BDF9041041EA000000B2DDF800E002B0EF
:1013F000704700BF9400002081B0CDF800E0019D4F
:101400002C4610B408B493B28AB201460348FFF7E1
:101410007BFE02B0DDF800E001B070470044004000
:1014200081B0CDF800E0019D2C4610B408B493B211
:101430008AB201460348FFF767FE02B0DDF800E01C
:1014400001B070470048004081B0CDF800E081B2A3
:101450000348FFF77BFFDDF800E001B0704700BFF5
:10146000004C004081B0CDF800E081B20348FFF7A6
:101470006DFFDDF800E001B0704700BF00380140AB
:1014800082B0CDF800E040F20004ADF80440044C16
:101490002468A047BDF90400DDF800E002B0704701
:1014A0009000002081B0CDF800E081B20348FFF742
:1014B0004DFFDDF800E001B0704700BF0050004074
:1014C00081B0CDF800E00A4601460348FFF782FCF0
:1014D000DDF800E001B070470054004002680649A2
:1014E0000A60011D0A6805490A6000F208010A68DD
:1014F00003490A60704700BF940000209800002054
:101500009000002081B0002808BF0FE002B54FF026
:101510009E0202D4521E4000FCD580302CBF521CCB
:101520004000400A40EAC250BDE8024001B07047A6
:1015300081B082F000422DE9FA414FEA02244FEADD
:1015400042052D0E04D1002C18BF4FF000006CE0B6
:1015500044F00044FF2D5FD04FEA9404002A48BFB6
:1015600064424FEA00214FEA40031B0E05D10029D7
:1015700014BF4FF00000104657E041F00041FF2B30
:101580004BD04FEA9101002848BF49425E1B41BF42
:101590000F4621463C46764248BF2B46192E47BF90
:1015A00044FA06F7C9194FF0000803E0C6F11C071A
:1015B00004FA07F8002904BF4FF0000035E046BFE9
:1015C00049424FF001074FF00007A3F10103490022
:1015D000FBD511F080040DD001F0200548EA050884
:1015E000803128BF5B1C01F0400458EA040808BFA2
:1015F00021F480719B1CDCBF4FF0000015E0FF2B35
:101600000DD221F0FF014FEA41014FEA512040EA9B
:10161000C35040EAC77008E010464FEAD0774FEA5F
:10162000C777FF204FEAC0503843BDE8FA4101B008
:101630007047FFFF82B0CDF800E0FFF7C7FE01A9B9
:101640000848007801230222FFF71AFF01AA107848
:10165000010289B2501C007841EA0000DDF800E088
:1016600002B070474600002081B010B5904208BF1C
:101670002AE040EA02044FEA4404002C08BF23E0B9
:10168000440004D1944201D4A41C012C1CE04FEA74
:1016900040044FEA1464FF2C0AD14FEA42044FEA97
:1016A0001464FF2C04D14FEAD274B4EBD0340BE0B5
:1016B000002A06D4002802DC0024012C04E0904219
:1016C00002E0002848BF8242BDE8104001B07047E8
:1016D0007047FFFF81B0FAB590EA02064CBF4FF0A9
:1016E00000464FF000064FEA00214FEA40031B0E70
:1016F00012BF41F000414FF000002CE0FF2B26D03C
:101700004FEA02244FEA42052D0E12BF44F0004476
:101710004FF000001FE0FF2D19D05B19A1FB04540E
:10172000002C5CBF64005B1E803424BF5B1C64081B
:101730007E3BDCBF4FF000000DE0FF2B07D24FEAED
:10174000142030F4000040EAC350304303E0FF2788
:10175000FF0546EA0700BDE8FA4001B07047FFFF09
:1017600081B0FAB590EA02064CBF4FF000464FF048
:101770000006010243001B0E12BF41F000414FF072
:1017800000003BE0FF2B35D05FEA02245FEA420510
:101790005FEA156511BF44F000444FF0FF4030434D
:1017A0002CE0FF2D26D05B1B002020276408490871
:1017B000A14240EB000028BF091B7F1E04D0002976
:1017C00018BF4900F4D1B84010F0004F04BF4000EA
:1017D000B3F1010380302CBF5B1C40007F33DCBFC2
:1017E0004FF000000AE0FF2B04D2400A40EAC35049
:1017F000304303E0FF27FF0556EA0700BDE8FA4043
:1018000001B0704781B0CDF800E0094902B440F260
:10181000000340F2000240F20001FFF701FE01B0B8
:10182000044A05490A600020DDF800E001B0704775
:10183000702000006D1300008C00002081B0CDF8F6
:1018400000E0016808460449FFF73AFE0020DDF891
:1018500000E001B0704700BFDC20000081B00091C3
:10186000014600980B461C465A1C15460346421C6E
:1018700010461A78227022780AB12B46F3E7084600
:1018800001B0704781B0CDF800E0094902B440F2E0
:10189000000340F2000240F20001FFF7ADFD01B08D
:1018A000044A05490A600020DDF800E001B07047F5
:1018B00004200000891300008C00002081B0CDF8C6
:1018C00000E0016808460449FFF7FAFD0020DDF852
:1018D00000E001B0704700BFDC20000081B0CDF80F
:1018E00000E00178CCB2A0B2034C2468A0470020ED
:1018F000DDF800E001B070478C00002081B0CDF829
:1019000000E0094902B440F2000340F2000240F254
:101910000001FFF771FD01B0044A05490A6000208B
:10192000DDF800E001B070470420000089130000DA
:101930008C00002081B0CDF800E0094902B440F2EB
:10194000000340F2000240F20001FFF72BFD01B05E
:10195000044A05490A600020DDF800E001B0704744
:1019600048210000651400008C00002081B0CDF8F3
:1019700000E011E00846FFF745FF16E00846FFF7D4
:10198000BDFF12E00846FFF7D5FF0EE00846FFF75F
:1019900079FF0AE0012008E00028EBD00128EDD013
:1019A0002028EFD03028F1D0F4E7DDF800E001B0D6
:1019B0007047FFFF81B0CDF800E08B4609E0584644
:1019C000FFF73CFF0AE05846FFF778FF06E00120EA
:1019D00004E00028F3D00128F5D0F8E7DDF800E0B6
:1019E00001B0704782B0CDF800E0FFF723FE1FFA88
:1019F00080F8B0F5006F10D24FEA580080B2FFF7C0
:101A000081FD114AFFF794FD4FF08A42FFF7A8FECF
:101A10000E4AFFF75FFE019010E040F2FF70804534
:101A20000CD94FEA580080B2FFF76CFD4FF08A42A4
:101A3000FFF796FE054AFFF74DFE01900198DDF88D
:101A400000E002B0704700BF00E0FF440000E0404B
:101A500083B0CDF800E0024610460D228DF8082034
:101A60000A228DF809201FE0FFF738FF23E00278F3
:101A70002AB10190FFF732FF0198401CF7E71AE006
:101A800002782AB10190FFF729FF0198401CF7E77F
:101A900002AA1046FFF722FF0DF109021046FFF7D8
:101AA0001DFF08E0062007E00029DDD00129DED077
:101AB0000229E5D0F6E70020DDF800E003B070472A
:101AC00082B0CDF800E002460C460020002149B269
:101AD0000192019AB2F1FF3F06D1714A11462046A8
:101AE000FFF7BCFE0320D7E0012501AAD21C127823
:101AF00002F08002D2B272B101AAD31C1A7882F02D
:101B000080021A706A1CD3B22D222270621C144605
:101B1000DEB2A24601E0A246EEB2019A32B9614AB3
:101B200011465046FFF79AFE0020B5E0019AB2F147
:101B3000FF4F06D15C4A11465046FFF78FFEF0B2C8
:101B4000AAE05FFA80F94FFA81F8019A4FF07E50CF
:101B5000FFF78AFD40F2000000DD012048B1019A44
:101B60005248FFF7B7FD0190A8F101084FFA88F835
:101B7000EBE7019A4D48FFF777FD40F2000000DCEB
:101B8000012048B1019A4A48FFF7A4FD019008F1ED
:101B900001084FFA88F8ECE7019A5200019201AA75
:101BA000D21C12787F3AD0B201AAD31C01221A703B
:101BB000019A8240019201AAD21C127830328AF82E
:101BC00000200AF10100B8F1010F06DBB8F1060FA1
:101BD00003DC05465FFA89F103E02E220270451C02
:101BE000012106204FFA88F400B301AAD31C002279
:101BF0001A70019A9300019AD2180192019A520028
:101C0000019201AAD21C127830322A706D1C51B98F
:101C1000621E52B253B222B92E222A706D1C0121CB
:101C2000FFE75CB2FFE7401EC0B2DDE7294660B2C5
:101C30004A1E1278302A01D1491EF9E74A1E12784D
:101C40002E2A01D1491EFFE710B365220A70491CF4
:101C5000002806DA2D220A70491C424250B243B2D3
:101C600000E043B2D8B2DAB2092A07D90A22B0FB9F
:101C7000F2F2D2B230320A70491CFFE70A23B0FBFD
:101C8000F3F203FB1202D2B230320A70481C00E0B9
:101C90000846002202700020DDF800E002B0704724
:101CA0003C000020400000204200002000002041B5
:101CB000CDCCCC3D81B0CDF800E00446054B1A7088
:101CC0000846FFF70BFC2046FFF702FDDDF800E0B9
:101CD00001B070474600002081B01548006840F010
:101CE000010113480160134913480160104801685D
:101CF000124801400E4801600D4801686FF48020D1
:101D000001400B4801600C4801686FF4FE0001407F
:101D100009480160064801686FF0A050014004487E
:101D200001604FF000010648016001B0704700BF3C
:101D3000001002400000FFF004100240FFFFF6FE1A
:101D40002C100240A086010081B0CDF800E00E48C2
:101D500001460020FFF72EFE42F280512020FFF7BF
:101D600005FE44F67F77C0F212077F1EFDD100BF4B
:101D700000BF00BF00BF00BF04480221FFF768FE9C
:101D8000DDF800E001B07047441D00001C00002099
:101D900081B0CDF800E0FFF725FE1049086010493A
:101DA000FFF78EFE0F480121FFF752FE01210C487C
:101DB000FFF74EFE0C480221FFF74AFE44F67F77FC
:101DC000C0F2120700BF00BF7F1EFDD100BF00BFE1
:101DD00000BFDDF800E001B0704700BF54000020F4
:101DE0005800002000000020170000200204060810
:101DF00081B0CDF800E04D220B490C48FFF75AFFA7
:101E000048F67F57C0F25B077F1EFDD100BF00BFC1
:101E100000BF00BF00BF06480221FFF719FEDDF832
:101E200000E001B0704700BF6C220000B421000048
:101E30002C00002081B01CF8019B0BF8019BBBEB30
:101E40000A0FF8D101B0704781B04FF000094FF090
:101E5000000CBDEB0A0F04DCBDEB0B0F01DBD4461D
:101E6000EA464BF8049BBBEB0A0FFAD1BCEB0A0F16
:101E700005DDE246D9F800B00BF1040BF1E701B043
:101E80007047FFFF81B002490248016001B070470E
:101E9000401901009C00002081B0FEE701B07047AE
:101EA00081B0CDF800E0464A464B474C47494BF6D7
:101EB0008030814206D94648006840F0020144481B
:101EC000016011E045F6C050814206D940480068E3
:101ED00040F001013E48016006E03D4801686FF0B6
:101EE000070001403A480160FFF7F6FE39480360F9
:101EF00039480460394802EA00013948016002F0BB
:101F0000010040B119463648006800F00200002880
:101F100000D1F8E700E0194602F4803040B10B46EA
:101F20002F48006800F40030002800D1F8E700E0F6
:101F30000B4602F0805068B12948006840F080519B
:101F4000274801602648006800F00050002800D1B2
:101F5000F8E7FFE702F0806078B12148006840F0C0
:101F600080611F48016011461A461D48006800F054
:101F70000060002800D1F8E701E011461A4601F0A0
:101F8000807070B11648006840F08071144801609C
:101F900011461348006800F0007000B9F9E70A46DE
:101FA000FFE70C48006800F00C01900000F00C0006
:101FB000814200D0F5E7DDF800E001B0704700BFD6
:101FC0008100010502841D00440601004019010042
:101FD00000200240041002402C100240FFFF0F00BE
:101FE00000100240FFF75CFF00F09AF9FFF74AFF8C
:101FF00000F048F9FFF7A8FEFFF7FAFEFFF7C8FE6A
:10200000FCE7FEE73500000036000000FFFFFFFFA1
:1020100000000000000000000000000000000000C0
:1020200000000000000000000000000000000000B0
:102030000000000000000000180800001800000068
:102040000000000000000000000000000000000090
:102050000000000000000000000000000000000080
:102060000000000000000000000000000800000860
:102070003800000039000000FFFFFFFF00000000F3
:102080000000000000000000000000000000000050
:102090000000000000000000000000000000000040
:1020A00000000000180800001800000000000000F8
:1020B0000000000000000000000000000000000020
:1020C0000000000000000000000000000000000010
:1020D000000000000000000030001408160000009E
:1020E00017000000FFFFFFFF0000000000000000DD
:1020F00000000000000000000000000000000000E0
:1021000000000000000000000000000000000000CF
:10211000280800002808000000000000000000005F
:1021200000000000000000000000000000000000AF
:10213000000000000000000000000000000000009F
:102140000000000002000000090000000A0000007A
:10215000FFFFFFFF00000000000000000000000083
:10216000000000000000000000000000000000006F
:10217000000000000000000000000000180800003F
:102180001800000000000000000000000000000037
:10219000000000000000000000000000000000003F
:1021A000000000000000000000000000000000002F
:1021B0000400000065040000590400004D04000004
:1021C0007104000095040000890400007D040000F3
:1021D0004104000005040000110400003504000063
:1021E00029040000FFFFFFFFFFFFFFFFFFFFFFFFCE
:1021F000FFFFFFFFFFFFFFFFFFFFFFFFFFFFFFFFEF
:10220000FFFFFFFFFFFFFFFFFFFFFFFFFFFFFFFFDE
:10221000FFFFFFFF707265737375726520646966F6
:10222000666572656E6365203A2000206B50610020
:102230002073797320696E697420646F6E65200065
:102240002061707020696E697420646F6E65200073
:102250004E614E003000494E460000000000010271
:1022600003040102030406070809FFFFF110000040
:10227000FFFFFFFF0D100000000000000000000045
:102280000000000000B5DFF824B0DFF824A0DFF87C
:1022900024C0FFF7CFFDDFF820B0DFF820A0DFF883
:1022A00020C0FFF7C7FD00BD704700BF0000002041
:1022B00046000020142200004800002054000020A6
:1022C00078220000FFFFFFFFFFFFFFFFFFFFFFFF80
:1022D000FFFFFFFFFFFFFFFFFFFFFFFFFFFFFFFF0E
:1022E000FFFFFFFFFFFFFFFFFFFFFFFFFFFFFFFFFE
:1022F000FFFFFFFFFFFFFFFFFFFFFFFFFFFFFFFFEE
:10230000FFFFFFFFFFFFFFFFFFFFFFFFFFFFFFFFDD
:10231000FFFFFFFFFFFFFFFFFFFFFFFFFFFFFFFFCD
:1023200000B5DFF810B0DFF810A0FFF78DFD00BD9D
:10233000704700BF00000020C8000020FFFFFFFF23
:00000001FF
