:10000000FFEF12F00000000000EF00F00000000021
:0A0010000000000000000000F3D71C
:0E001C00010139B102D08B9801D08B881200FF
:0E002A00010139B102D08B9601D08B861200F5
:0E003800010139B102D08D9601D08D861200E3
:0E004600010139B102D0899401D089841200E1
:0E005400010139B102D08B9C01D08B8C1200BF
:0E006200010139B102D08B9401D08B841200C1
:0E007000010139B102D08B9A01D08B8A1200A7
:0E007E00010139B102D08B9E01D08B8E120091
:0E008C00010139B102D08A9201D08A8212009D
:0E009A00010139B102D08D9401D08D84120085
:0E00A800010139B102D08F9201D08F82120077
:0E00B600010139B102D08F9401D08F84120065
:0E00C400010139B102D08B9801D08B88120057
:0E00D200010139B102D08B9601D08B8612004D
:0E00E000010139B102D08A9401D08A84120045
:0E00EE00010139B102D08B9801D08B8812002D
:0E00FC00010139B102D08B9601D08B86120023
:0E010A00010139B102D08F9001D08F80120018
:0E011800010139B102D08B9A01D08B8A1200FE
:0E012600010139B102D08B9801D08B881200F4
:0E013400010139B102D08B9601D08B861200EA
:0E014200010139B102D08B9201D08B821200E4
:0E015000010139B102D08B9A01D08B8A1200C6
:0E015E00010139B102D08D9001D08D801200C8
:10016C000F0121B302D00000FBD739C11CFF1200D4
:0E017C00ACB202D00000FCD739C1ADFF1200BA
:0E018A00010139B102D08B9001D08B801200A0
:0E019800010139B102D0899001D08980120096
:0E01A600010139B102D08A9001D08A80120086
:0E01B400010139B102D08D9201D08D8212006E
:0E01C200010139B102D0899801D0898812005C
:0E01D000010139B102D08B9801D08B8812004A
:0E01DE00010139B102D08B9601D08B86120040
:0E01EC00010139B102D0899201D0898212003E
:0E01FA00010139B102D08B9C01D08B8C120018
:0E020800010139B102D08B9E01D08B8E120005
:0E021600010139B102D08B9801D08B88120003
:0E022400010139B102D08B9601D08B861200F9
:1002320068B409D01F0E6614016E0150000A03E172
:0A024200010E006E01D0006A1200E8
:10024C00F250026EF29E0500FF6A0150FE6E0050E5
:08025C00FD6E02BEF28E1200DD
:10026400C7B409D01F0EC514016E0150000A03E182
:0A027400010E006E01D0006A1200B6
:0A027E00000E82B6010E006E1200A1
:0A028800000E82B0010E006E12009D
:0A029200000E84B0010E006E120091
:0A029C00000E82B8010E006E120081
:0A02A600000E82BA010E006E120075
:0A02B000000E80B0010E006E120077
:0A02BA00000E82B2010E006E120069
:0A02C400000EACB2010E006E120035
:0A02CE00000E9EBA010E006E120031
:1002D800AECF01F0ABA202D0AB98AB8801C000F062
:0202E800120002
:0C02EA00000E0F0121B3010E006E120087
:0A02F600000EA4BA010E006E120003
:100300001DCF01F00F0122A302D02299228901C042
:0403100000F01200E7
:0A031400000E81B0010E006E120011
:0A031E00000E82BA010E006E1200FC
:0A032800000E82B8010E006E1200F4
:0A033200000E82B6010E006E1200EC
:0A033C00000E82BE010E006E1200DA
:0A034600000E81B2010E006E1200DD
:0A035000000E82B4010E006E1200D0
:0A035A00000E84B2010E006E1200C6
:0A036400000E82B6010E006E1200BA
:0A036E00000E82BC010E006E1200AA
:0A037800000E82BE010E006E12009E
:0A038200000E80B8010E006E12009C
:0A038C00000E80B2010E006E120098
:0A039600000E82B8010E006E120086
:1003A000A19A33C16AFF61C034F162C035F163C004
:1003B00036F164C037F168A422D0000161516211A6
:1003C000631164111BE001013451351136113711ED
:1003D0000EE1F3C0E1FFF4C0E2FF040EE66EF1C0EF
:1003E00000F0F2C001F032DF010E006E3BD0010ED2
:1003F0000101345F000E355B365B375BDCD761C0D3
:1004000034F162C035F163C036F164C037F1A1BA8E
:1004100022D0000161516211631164111BE00101DE
:1004200034513511361137110EE1F3C0E1FFF4C03C
:10043000E2FF040EE66EF1C000F0F2C001F006DF4C
:10044000010E006E0FD0010E0101345F000E355B0E
:10045000365B375BDCD766BC02D0006A03D06684AB
:06046000020E006E120006
:100466002BC033F12CC034F12DC035F12EC036F13E
:10047600C582C5A21FD02B502C102D102E1019E0AE
:10048600010133513411351136110CE1E7C0E1FF9A
:10049600E8C0E2FF060EE66EE5C000F0E6C001F039
:1004A600D2DE08D0010E0101335F000E345B355BEE
:0604B600365BDFD71200E7
:0404BC00C5841200E1
:1004C00061C035F162C036F163C037F164C038F104
:1004D000A19A6686A1BA20D0000161516211631110
:1004E000641119E0010135513611371138110CE151
:1004F000F3C0E1FFF4C0E2FF030EE66EF1C000F0CE
:10050000F2C001F0A3DE08D0010E0101355F000E3C
:10051000365B375B385BDED701016ACF34F133518C
:10052000000A02E1668A01D0669AA19A668861C0D3
:1005300035F162C036F163C037F164C038F1A1BA59
:1005400020D00001615162116311641119E00101B1
:1005500035513611371138110CE1F3C0E1FFF4C009
:10056000E2FF030EE66EF1C000F0F2C001F06EDEB5
:1005700008D0010E0101355F000E365B375B385B3A
:08058000DED734C100F01200C7
:0A058800000E82B8010E006E120092
:100592002BC035F12CC036F12DC037F12EC038F109
:1005A2009E96C5869EB61FD02B502C102D102E1055
:1005B20019E0010135513611371138110CE1E7C04C
:1005C200E1FFE8C0E2FF030EE66EE5C000F0E6C020
:1005D20001F03BDE08D0010E0101355F000E365BF3
:1005E200375B385BDFD70101C9CF34F13351000AE1
:1005F20002E1C58A01D0C59A9E96C5882BC035F105
:100602002CC036F12DC037F12EC038F19EB61FD066
:100612002B502C102D102E1019E0010135513611DE
:10062200371138110CE1E7C0E1FFE8C0E2FF030E29
:10063200E66EE5C000F0E6C001F007DE08D0010E6C
:100642000101355F000E365B375B385BDFD734C1A3
:0406520000F01200A2
:100656009E9633C1C9FF2BC034F12CC035F12DC095
:1006660036F12EC037F1C7A421D02B502C102D10F7
:100676002E101BE0010134513511361137110EE1F0
:10068600E7C0E1FFE8C0E2FF040EE66EE5C000F059
:10069600E6C001F0D8DD010E006E3AD0010E010170
:1006A600345F000E355B365B375BDDD72BC034F12C
:1006B6002CC035F12DC036F12EC037F19EB621D0B3
:1006C6002B502C102D102E101BE00101345135112A
:1006D600361137110EE1E7C0E1FFE8C0E2FF040E74
:1006E600E66EE5C000F0E6C001F0ADDD010E006E7D
:1006F6000FD0010E0101345F000E355B365B375BB0
:10070600DDD7C5BC02D0006A03D0C584020E006ED8
:020716001200CF
:100718000B820BAE96EF03F003680268016800686D
:080728000A360232FF0E120036
:0E073000026A016A006A086A036A000E12007B
:10073E002BC035F12CC036F12DC037F12EC038F15B
:10074E000101336B346B3451120802E133518E08C0
:10075E0008E381DD005201E004D00101334B342B5C
:10076E00F2D70101120E345D02E18F0E335D03E309
:10077E007B0E006E24D0C580C5A020D02B502C102F
:10078E002D102E101AE035513611371138110EE199
:10079E00E7C0E1FFE8C0E2FF050EE66EE5C000F03F
:1007AE00E6C001F04CDD010E006E09D0010E010114
:1007BE00355F000E365B375B385BDED7006A1200A2
:0807CE000AAE029E000E1200AB
:1007D60061C033F162C034F163C035F164C036F1F3
:1007E600668266A220D00001615162116311641114
:1007F60019E0010133513411351136110CE1F3C002
:10080600E1FFF4C0E2FF060EE66EF1C000F0F2C0B2
:1008160001F019DD08D0010E0101335F000E345BD3
:08082600355B365BDED71200E2
:04082E0066841200CA
:100832000B840BAE24EF04F0010E036E026A016A10
:0A084200006A0A360232FF0E1200AF
:0A084C00000E82B6010E006E1200CD
:0A085600000E80B4010E006E1200C7
:0A086000000E84B6010E006E1200B7
:0A086A00000E84B4010E006E1200AF
:0A087400000E82B8010E006E1200A3
:0A087E00000E82BC010E006E120095
:1008880061C035F162C036F163C037F164C038F138
:100898000101336B346B3451120802E133518E0875
:1008A80008E3C3DC005201E004D00101334B342BD0
:1008B800F2D70101120E345D02E18F0E335D03E3BE
:1008C8007B0E006E26D0668066A022D000016151A2
:1008D8006211631164111BE00101355136113711A2
:1008E80038110EE1F3C0E1FFF4C0E2FF050EE66E39
:1008F800F1C000F0F2C001F0A5DC010E006E09D0D5
:10090800010E0101355F000E365B375B385BDCD7C3
:04091800006A12005F
:0A091C00000E82B6010E006E1200FC
:0A092600000E81B4010E006E1200F5
:0A093000000E86B4010E006E1200E6
:0A093A00000E86B2010E006E1200DE
:0A094400000E86B0010E006E1200D6
:0A094E00000E82B6010E006E1200CA
:0A095800000E82B8010E006E1200BE
:0A096200000E82BA010E006E1200B2
:10096C000CB0F8EF04F00CA29EEF05F00E6A000E2E
:10097C0002640FEF05F0F00E0214D8A4DAEF04F0C5
:10098C00023A01380F0B02260138F00B016E0038C9
:10099C000F0B01260038F00B006E08380F0B0026E9
:1009AC000838F00B086E0E84D89002BEF3EF04F0FA
:1009BC0008360036013602360E2A02BEF3EF04F07A
:1009CC0008360036013602360E2A02BEF3EF04F06A
:1009DC0008360036013602360E2A0E50036494EFA8
:1009EC0005F0035E0BBC08AE99EF05F0D880800EC5
:1009FC0008640030000E002201220222D8A099EFD8
:100A0C0005F0023201320032034A9EEF05F099EFF5
:100A1C0005F001C002F000C001F008C000F0086A47
:100A2C00000E0E86026446EF05F0F00E0214D8A4F8
:100A3C002EEF05F0023A01380F0B02260138F00BAD
:100A4C00016E00380F0B01260038F00B006E0E847F
:100A5C00D89002BEF3EF04F00036013602360E2AAF
:100A6C0002BEF3EF04F00036013602360E2A02BE47
:100A7C00F3EF04F00036013602360E2AF3EF04F0E1
:100A8C0001C002F000C001F0006A000E0E960E8844
:100A9C00026473EF05F0F00E0214D8A45EEF05F0BB
:100AAC00023A01380F0B02260138F00B016E0E844E
:100ABC00D89002BEF3EF04F0013602360E2A02BEC5
:100ACC00F3EF04F0013602360E2A02BEF3EF04F007
:100ADC00013602360E2AF3EF04F001C002F0016A6F
:100AEC00000E0E860264A3EF05F0F00E0214D8A4DB
:100AFC0082EF05F0023A0E84D89002BEF3EF04F0B8
:100B0C0002360E2A02BEF3EF04F002360E2A02BEA3
:100B1C00F3EF04F002360E2AF3EF04F0010E0C6E24
:100B2C0082DEA6EF05F0020E0C6E4BDEA6EF05F092
:100B3C00040E0C6EEBDDA6EF05F0080E0C6EF2DD6C
:020B4C00120095
:080B4E000B6A0B86FF0E12007A
:100B56000101296B2A6B71C000F072C001F026EC0E
:100B660001F000C029F1000E01012A6F29C100F031
:060B76002AC101F012008B
:100B7C006C0E0001756F010E766F390E776F010EDA
:100B8C00786F000E01010D6F030E0E6F000E0F6FCC
:100B9C00000E106FF60E156F020E166F000E176F0B
:100BAC00000E186FEA0E116F020E126F000E136F0B
:100BBC00000E146F0F01218B900E226F9884989267
:0C0BCC00A4AA03D01DCF00F0FBD712003C
:100BD8007C0E0001756F010E766F390E776F010E6E
:100BE800786FD80E01010D6F020E0E6F000E0F6F99
:100BF800000E106FCE0E156F020E166F000E176FD7
:100C0800000E186FC40E116F020E126F000E136FD4
:100C1800000E146FAC8A900EAB6E948E949C9EAAB4
:0A0C280003D0AECF00F0FBD712009E
:100C3200025006180E6E086A096A0B6A03500764AE
:100C42000CEF07F006500A6E068E028E03500B6EF2
:100C52000750036E000E0B645CEF06F00B50075E4C
:100C6200D8B4FDEF06F0070E0764CBEF06F0075E7F
:100C720000C008F001C000F002C001F0026A074E95
:100C8200FDEF06F00764A0EF06F0075E00C008F073
:100C920001C000F0016A074EFDEF06F007647EEF27
:100CA20006F0075E00C008F0006A074EFDEF06F08E
:100CB200076465EF06F00AC002F005C001F004C047
:100CC20000F0086A27EF08F0030E076470EF06F0E1
:100CD200075E08380F0B086E074EFDEF06F0D8903E
:100CE2000832074EFDEF06F0D8900832074EFDEFAE
:100CF20006F0D8900832FDEF06F0030E07648FEF7E
:100D020006F0075E08380F0B086E0038F00B082655
:100D120000380F0B006E074EFDEF06F0D890003240
:100D22000832074EFDEF06F0D89000320832074E27
:100D3200FDEF06F0D89000320832FDEF06F0030E08
:100D42000764B7EF06F0075E08380F0B086E00382D
:100D5200F00B082600380F0B006E0138F00B00264E
:100D620001380F0B016E074EFDEF06F0D8900132ED
:100D720000320832074EFDEF06F0D8900132003201
:100D82000832074EFDEF06F0D890013200320832E9
:100D9200FDEF06F0030E0764E8EF06F0075E083881
:100DA2000F0B086E0038F00B082600380F0B006E90
:100DB2000138F00B002601380F0B016E0238F00BE0
:100DC200012602380F0B026E074EFDEF06F0D89097
:100DD2000232013200320832074EFDEF06F0D8909F
:100DE2000232013200320832074EFDEF06F0D8908F
:100DF2000232013200320832096A000E0EAEF1EF01
:100E020007F0081E001E011E021E082A00220122EF
:100E12000222F1EF07F00750D8A412EF07F027EFF4
:100E220008F0096A02C00AF0028E068E0750035CBF
:100E3200076ED8B4E4EF07F0070E0764B2EF07F0CD
:100E4200075E0450096E0550046E0650056E066A70
:100E5200074EE4EF07F0070E076487EF07F0075E1F
:100E62000450096E0550046E056A074EE4EF07F060
:100E7200070E076465EF07F0075E0450096E046A07
:100E8200074EE4EF07F0070E07644CEF07F00AC0C5
:100E920002F027EF08F0030E076457EF07F0075E32
:100EA20009380F0B096E074EE4EF07F0D8900932AC
:100EB200074EE4EF07F0D8900932074EE4EF07F04F
:100EC200D8900932E4EF07F0030E076476EF07F0DB
:100ED200075E09380F0B096E0438F00B0926043837
:100EE2000F0B046E074EE4EF07F0D890043209327C
:100EF200074EE4EF07F0D89004320932074EE4EFD0
:100F020007F0D89004320932E4EF07F0030E0764C9
:100F12009EEF07F0075E09380F0B096E0438F00BDD
:100F2200092604380F0B046E0538F00B0426053829
:100F32000F0B056E074EE4EF07F0D890053204322E
:100F42000932074EE4EF07F0D89005320432093235
:100F5200074EE4EF07F0D890053204320932E4EF8D
:100F620007F0030E0764CFEF07F0075E09380F0B97
:100F7200096E0438F00B092604380F0B046E05388D
:100F8200F00B042605380F0B056E0638F00B05260C
:100F920006380F0B066E074EE4EF07F0D8900632C4
:100FA200053204320932074EE4EF07F0D8900632D8
:100FB200053204320932074EE4EF07F0D8900632C8
:100FC200053204320932086A000E0EAEF1EF07F064
:100FD200091E041E051E061E092A042205220622D7
:100FE2000950082604500022055001220650022210
:100FF2000EBE08EF08F0D8A017EF08F00232013257
:1010020000320832033E17EF08F021EF08F0D8B0A3
:101012001CEF08F0000E081E001E011E021E082A08
:101022000022012202220A7E1CEF08F0010E0C6E41
:101032009CDC29EF08F0020E0C6E97DC29EF08F019
:10104200040E0C6E8CEC03F029EF08F0000E0C6E0F
:0210520012008A
:101054000C6A0E6A0250D8A443EF08F001C002F0F3
:1010640000C001F0006A0E860250D8A443EF08F0D5
:1010740001C002F0016A0E960E880250D8B455EFF2
:1010840008F00E50035ED8A4D8A05BEF08F0D89007
:1010940002BE61EF08F0003601360236032E4AEF35
:1010A40008F05BEF08F0010E0C6E98EC03F065EFAE
:1010B40008F0020E0C6E19EC04F065EF08F0040E53
:0810C4000C6EE7EC03F01200D2
:1010CC00640E0001ED6F020EEE6F000EEF6F000E5E
:1010DC00F06F3E0EF56F070EF66F000EF76F000EF9
:1010EC00F86F660E0101056F040E066F000E076F98
:1010FC00000E086F920E096F050E0A6F330E0B6F00
:10110C00010E0C6F560E0001F96F060EFA6F330EBE
:10111C00FB6F010EFC6FBC0E0101016F040E026F20
:10112C00000E036F000E046F949894968B988B9618
:0E113C0094889486C79EC79C380EC66E12001B
:10114A000101316B326B2AC12FF12BC130F129C158
:10115A0000F00036009000806BC0E1FF6CC0E2FF37
:10116A0000C0E6FF69C000F06AC001F026EC01F099
:10117A00005001013113000E3213010E2C5F000ED4
:10118A002D5B2C512D1116E067C0E1FF68C0E2FF0C
:10119A00010EE66E65C000F066C001F026EC01F0B3
:1011AA002FC1E1FF30C1E2FF00C0E6FF01012F4B72
:1011BA00302BE3D767C0E1FF68C0E2FFE66A65C08B
:1011CA0000F066C001F026EC01F02FC1E1FF30C14A
:1011DA00E2FF00C0E6FF01012E51000A06E17DC0D0
:1011EA0000F07EC001F026EC01F001012E51010A47
:1011FA0006E179C000F07AC001F026EC01F031C1B5
:08120A0000F032C101F01200F6
:1012120023C1F6FF24C1F7FF25C1F8FF0900F5CF6E
:1012220071F00900F5CF72F00900F5CF73F00900F3
:10123200F5CF74F0040E01012325F66E000E242171
:10124200F76E000E2521F86E0900F5CF7DF009003A
:10125200F5CF7EF00900F5CF7FF00900F5CF80F0E1
:10126200080E2325F66E000E2421F76E000E2521AE
:10127200F86E0900F5CF79F00900F5CF7AF0090090
:10128200F5CF7BF00900F5CF7CF00C0E2325F66E2E
:10129200000E2421F76E000E2521F86E0900F5CF0D
:1012A20069F00900F5CF6AF00900F5CF6BF009008B
:1012B200F5CF6CF0100E2325F66E000E2421F76E8A
:1012C200000E2521F86E0900F5CF65F00900F5CF73
:1012D20066F00900F5CF67F00900F5CF68F012005B
:1012E20023C126F124C127F125C128F10BD0A00E7C
:1012F200C86EEBDE44D0280EC86EE7DE40D0040E86
:10130200006E3FD026C1F6FF27C1F7FF28C1F8FFC4
:101312000900F5CF01F00900F5CF02F00900F5CF81
:1013220003F00900F5CF04F00450000A08E103506D
:10133200010A05E10250860A02E10150A00AD7E043
:1013420026C1F6FF27C1F7FF28C1F8FF0900F5CF34
:1013520001F00900F5CF02F00900F5CF03F0090012
:10136200F5CF04F00450000A08E10350060A05E133
:1013720002501A0A02E10150800ABDE0C0D7000EF5
:04138200006E1200E7
:1013860021D0CF0EAF6EAC9424DC6BD0670EAF6E5F
:10139600AC941FDC66D0CF0EAF6EAC841ADC61D085
:1013A600670EAF6EAC8415DC5CD0440EAF6EAC84B9
:1013B60010DC57D0220EAF6EAC840BDC52D0060E7A
:1013C600006E59D00101000E006E261908E100508A
:1013D600251905E1120E241902E12351C00AD1E0B4
:1013E600000E006E261908E10050251905E1250EAC
:1013F600241902E12351800AC9E0000E006E261965
:1014060008E10050251905E14B0E241902E123518C
:10141600000AC1E0000E006E261908E100502519E9
:1014260005E1960E241902E12351000AB9E0000EE7
:10143600006E261908E10050251905E1E10E241970
:1014460002E12351000AB1E02651000A08E12551C4
:10145600010A05E12451C20A02E12351000AAAE069
:10146600AED77C0E0001E96F010EEA6F390EEB6F05
:08147600010EEC6F006A120088
:10147E00EBC0E1FFECC0E2FF23C1E9FF24C1EAFFAC
:10148E00EECFE6FFE9C000F0EAC001F026EC01F075
:04149E00006A1200CE
:1014A20023C126F124C127F125C128F10BD0A00EBA
:1014B200C86E0BDE44D0280EC86E07DE40D0040E84
:1014C200006E3FD026C1F6FF27C1F7FF28C1F8FF03
:1014D2000900F5CF01F00900F5CF02F00900F5CFC0
:1014E20003F00900F5CF04F00450000A08E10350AC
:1014F200010A05E10250860A02E10150A00AD7E082
:1015020026C1F6FF27C1F7FF28C1F8FF0900F5CF72
:1015120001F00900F5CF02F00900F5CF03F0090050
:10152200F5CF04F00450000A08E10350060A05E171
:1015320002501A0A02E10150800ABDE0C0D7000E33
:04154200006E120025
:1015460023C126F124C127F125C128F10BD0A00E15
:10155600C86EB9DD44D0280EC86EB5DD40D0040E85
:10156600006E3FD026C1F6FF27C1F7FF28C1F8FF5E
:101576000900F5CF01F00900F5CF02F00900F5CF1B
:1015860003F00900F5CF04F00450000A08E1035007
:10159600010A05E10250860A02E10150A00AD7E0DD
:1015A60026C1F6FF27C1F7FF28C1F8FF0900F5CFCE
:1015B60001F00900F5CF02F00900F5CF03F00900AC
:1015C600F5CF04F00450000A08E10350060A05E1CD
:1015D60002501A0A02E10150800ABDE0C0D7000E8F
:0415E600006E120081
:1015EA0027D0CF0EAF6EAC94ECEC05F070D0670E3E
:1015FA00AF6EAC94ECEC05F06AD0CF0EAF6EAC8453
:10160A00ECEC05F064D0670EAF6EAC84ECEC05F040
:10161A005ED0440EAF6EAC84ECEC05F058D0220ECE
:10162A00AF6EAC84ECEC05F052D0060E006E59D0C9
:10163A000101000E006E261908E10050251905E186
:10164A00120E241902E12351C00ACBE0000E006EEB
:10165A00261908E10050251905E1250E241902E191
:10166A002351800AC4E0000E006E261908E10050DA
:10167A00251905E14B0E241902E12351000ABDE0A8
:10168A00000E006E261908E10050251905E1960E94
:10169A00241902E12351000AB6E0000E006E261951
:1016AA0008E10050251905E1E10E241902E1235150
:1016BA00000AAFE02651000A08E12551010A05E1B6
:1016CA002451C20A02E12351000AA9E0AED77C0ED6
:1016DA000001E96F010EEA6F390EEB6F010EEC6F34
:0416EA00006A120080
:1016EE003ED00F0120870D0E1F6F040E1E6F218539
:1016FE00BEEC05F083D00F012087060E1F6F820E01
:10170E001E6F2185BEEC05F079D00F012087030EE8
:10171E001F6F400E1E6F2185BEEC05F06FD00F01BE
:10172E002087010E1F6FA00E1E6F2185BEEC05F0E7
:10173E0065D00F012087010E1F6F150E1E6F2185BC
:10174E00BEEC05F05BD00F0120871F6B8A0E1E6F5B
:10175E002185BEEC05F052D0060E006E59D0000E5B
:10176E00006E0101261908E10050251905E1120E3F
:10177E00241902E12351C00AB4E0000E006E2619AE
:10178E0008E10050251905E1250E241902E1235127
:10179E00800AB1E0000E006E261908E100502519EE
:1017AE0005E14B0E241902E12351000AAEE0000EB2
:1017BE00006E261908E10050251905E1960E241930
:1017CE0002E12351000AABE0000E006E261908E17B
:1017DE000050251905E1E10E241902E12351000AFA
:1017EE00A8E02651000A08E12551010A05E124511D
:1017FE00C20A02E12351000AA6E0AED76C0E000128
:10180E00E96F010EEA6F390EEB6F010EEC6F006A95
:02181E001200B6
:1018200027D0CF0EAF6EAC94ECEC05F070D0670E05
:10183000AF6EAC94ECEC05F06AD0CF0EAF6EAC841A
:10184000ECEC05F064D0670EAF6EAC84ECEC05F008
:101850005ED0440EAF6EAC84ECEC05F058D0220E96
:10186000AF6EAC84ECEC05F052D0060E006E59D091
:101870000101000E006E261908E10050251905E14E
:10188000120E241902E12351C00ACBE0000E006EB3
:10189000261908E10050251905E1250E241902E159
:1018A0002351800AC4E0000E006E261908E10050A2
:1018B000251905E14B0E241902E12351000ABDE070
:1018C000000E006E261908E10050251905E1960E5C
:1018D000241902E12351000AB6E0000E006E261919
:1018E00008E10050251905E1E10E241902E1235118
:1018F000000AAFE02651000A08E12551010A05E17E
:101900002451C20A02E12351000AA9E0AED77C0E9D
:101910000001E96F010EEA6F390EEB6F010EEC6FFB
:04192000006A120047
:021924001200AF
:101926000D6A086A0050D8B4000C04180A6E0ABE84
:101936000D1E0B6A04AE02D0041E042A00AE02D0AD
:10194600001E002A005004100A6E0ABE1FD0045062
:10195600085E003600340836045008260036060EA7
:101966000C6E00340836045000B0085E00A008264D
:1019760000360C2EF6D700A008260BB015D00DAEFB
:10198600000C001E002A081E082A000C04AE09D00E
:1019960000BE04D00050086E006AF1D7006A002A23
:1019A600000C001E0B2AD3D7082A0450085CD8A4C2
:0E19B600E6D7086A002A00AEE2D7FF0C120046
:1019C400ABEC05F05FC029F1250E2A6F010E2B6FD9
:1019D400020E2C6F000E2D6F2E6BA5EC08F025C1A6
:1019E40023F1000E0101246F23C101F0006A00C03D
:1019F40023F101C024F126510012000E011200C08F
:081A040023F101C024F11200DE
:101A0C0023C104F024C105F004C002F005C003F0AA
:101A1C00044A052A25C100F026C101F00101254B1D
:101A2C00262B00C0E9FF01C0EAFF02C0E1FF03C0A2
:101A3C00E2FFEECFE6FF02C0E9FF03C0EAFFEE5281
:0E1A4C0001E0E2D723C100F024C101F0120036
:101A5A000A6A0350D8A40A800750D8A40A820A50F6
:101A6A00D8B490EF0DF0030AD8B449EF0DF00AB0DC
:101A7A0044EF0DF006AE8EEF0DF08CEF0DF002AED6
:101A8A008CEF0DF08EEF0DF00250800B0A6E029E65
:101A9A000650800B069E0A18D8B45AEF0DF00A5069
:101AAA00D8B48CEF0DF08EEF0DF00750035CD8B46C
:101ABA0064EF0DF0D8A080EF0DF086EF0DF0065020
:101ACA00025CD8B46EEF0DF0D8A080EF0DF086EF6F
:101ADA000DF00550015CD8B478EF0DF0D8A080EF76
:101AEA000DF086EF0DF00450005CD8B490EF0DF0C5
:101AFA00D8B086EF0DF00A52D8B48EEF0DF08CEF05
:101B0A000DF00A52D8B48CEF0DF08EEF0DF0D8809C
:0E1B1A001200D8901200D880D8841200120059
:101B2800086A096A000E0762036419EF0EF0025092
:101B380006180A6E075003267E0ED8A0AAEF0DF0ED
:101B4800035ED8B01EEF0EF0AEEF0DF0035ED8A026
:101B580023EF0EF0028E068E02C00EF001C00BF0CD
:101B680000C00DF000500402F4CF0CF00150050243
:101B7800F4CF00F0F3CF08F00402F3500C26F45031
:101B88000822000E00220D500502F3500C26F450D6
:101B98000822000E002202500402F3500826F450D6
:101BA800002202500502016A000E0122F3500026AD
:101BB800F45001220D500602F3500826F45000227A
:101BC800026A000E012202220B500602F350002680
:101BD800F4500122000E02220E500602F350012694
:101BE800F450022202BE01EF0EF00836003601362C
:101BF80002360306D8B423EF0EF014EF0EF0D880A7
:101C0800800E08640030000E002201220222D8A0B3
:101C180014EF0EF0023201320032034A1EEF0EF0CA
:101C28000AAE029E000E26EF0EF0010E98EC03F0AD
:101C380026EF0EF0020E8CEC03F026EF0EF0040EE9
:061C480019EC04F012008B
:081C4E00067E19EC06F01200FD
:101C56000050086E0150006E016A026A036A0B6A40
:101C66000C6A960E036E0A6A00C001F008C000F006
:0A1C7600086A026A2AEC08F0120066
:101C80000450000A12E10550000A0FE10650000A54
:101C90000CE10750000A09E1FF0E006EFF0E016E15
:101CA0007F0E026EFF0E036EA8D0086A096A075005
:101CB000D8B4EBEF0EF00350D8B4F0EF0EF00250B2
:101CC00006180A6E028E068E0E6A02C008F001C067
:101CD0000CF000C00DF004500D5E0550D8A0053C7E
:101CE0000C5E0650D8A0063C085E086A0C6A0D6AB5
:101CF000D8A082EF0EF0D8900232013200320832C2
:101D0000010E0E6E0750035ED8A08FEF0EF07E0E10
:101D10000E240326D8B0F5EF0EF095EF0EF07E0EF0
:101D20000E240326D8A0FAEF0EF0180E0B6E0D3617
:101D30000C3608360036013602360E360450005E88
:101D40000550D8A0053C015E0650D8A0063C025EB6
:101D500006340E120EA0B0EF0EF00D80BBEF0EF0A9
:101D6000045000260550D8B0053C01260650D8B0D6
:101D7000062802260D900B2E97EF0EF0E1EF0EF0E5
:101D8000D8900036013602360E360450005E0550FB
:101D9000D8A0053C015E0650D8A0063C025E063481
:101DA0000E10010B0D26D8B00C2AD8B4082AD8A4DE
:101DB000E1EF0EF008320C320D32032AD8B4F5EF01
:101DC0000EF00AAE089E0850026E0C50016E0D50C7
:101DD000006EFDEF0EF0010EA7EC05F0FDEF0EF02A
:101DE000020E98EC03F0FDEF0EF0040E8CEC03F005
:0C1DF000FDEF0EF0080E19EC04F01200DC
:101DFC001ED01AC123F11BC124F11CC125F171ECB9
:101E0C0009F020D01AC123F11BC124F11CC125F10A
:101E1C00A3EC0AF017D01AC123F11BC124F11CC189
:101E2C0025F151EC0AF00ED0010E006E0BD0010121
:101E3C001951000ADEE01951010AE4E01951020AB5
:061E4C00EAE0F2D71200EB
:101E52002DD01AC123F11BC124F11CC125F11DC1D2
:101E620026F1F5EC0AF030D01AC123F11BC124F19E
:101E72001CC125F11DC126F1D2DC26D01AC123F1E5
:101E82001BC124F11CC125F11DC126F12FDC1CD080
:101E92001AC123F11BC124F11CC125F11DC126F178
:101EA200C3EC09F011D0010E006E0ED001011951E0
:101EB200000ACFE01951010AD7E01951020ADEE007
:0A1EC2001951100AE5E0EFD71200F5
:101ECC000001FE6BFF6B19C11FF11AC120F11BC180
:101EDC0021F11CC122F101012251FF0A08E121511B
:101EEC00FF0A05E12051FF0A02E11F51FF0A0CE134
:101EFC001DC123F11EC124F14B0E256F000E266F60
:101F0C007FDD030E006E02D2010E0001606F010135
:101F1C0021AF10D0800E2119006E00C021F10001FC
:101F2C00602B1DC1E1FF1EC1E2FF2D0EE66E01010B
:101F3C001D4B1E2B000E006E221908E100502119BA
:101F4C0005E10050201902E11F51000A0BE11DC1EF
:101F5C0023F11EC124F1290E256F000E266F50DDD2
:101F6C00006AD4D12251FF0A08E12151000A05E18F
:101F7C002051000A02E11F51000A0CE11DC123F19E
:101F8C001EC124F1250E256F000E266F39DD60C0B1
:101F9C0000F0BCD1000E046E000E056E000E066E35
:101FAC007F0E076E1FC100F020C101F021C102F0AD
:101FBC0022C103F04CDD010ED8B0000E006E0052B1
:101FCC001CE01FC100F020C101F021C102F022C1B0
:101FDC0003F0000E046E000E056E200E066E820ECF
:101FEC00076E9CDD00C01FF101C020F102C021F181
:101FFC0003C022F10001FF07CDD7000E046E000EC6
:10200C00056E200E066E820E076E1FC100F020C1F9
:10201C0001F021C102F022C103F019DD000ED8B08D
:10202C00010E006E00521CE000011FC100F020C127
:10203C0001F021C102F022C103F0CD0E046ECC0ED2
:10204C00056E4C0E066E7B0E076E68DD00C01FF130
:10205C0001C020F102C021F103C022F1FF2BCDD72A
:10206C00FF0E01011F15086EFF0E2015096E7F0E65
:10207C0021150A6E000E22150B6E08C004F009C063
:10208C0005F00AC006F00BC007F0043604900536C4
:10209C0006360736000E1F15006E000E2015016E59
:1020AC00000E2115026EFF0E2215036E00C01FF1EB
:1020BC0001C020F102C021F103C022F104501F1114
:1020CC00006E05502011016E06502111026E075052
:1020DC002211036E00C01FF101C020F102C021F1DA
:1020EC0003C022F17F0E225D006E00C0FDF0010ED8
:1020FC00226F00C004F01FC100F020C101F021C10B
:10210C0002F022C103F0045007E0003600900136C3
:10211C0002360336FF0FF8D7010100C01FF101C0D2
:10212C0020F102C021F103C022F11DC1E1FF1EC14B
:10213C00E2FF2251300FE66E1D4B1E2B800E00016C
:10214C00FF19006E800E010A005C08E3800E060A7F
:10215C00006E800EFF19005C01E30CD01DC1E1FF85
:10216C001EC1E2FF2E0EE66E01011D4B1E2B010E51
:10217C000001FE6F060EFD6FFD51000A58E00101D3
:10218C00226B1FC100F020C101F021C102F022C15D
:10219C0003F000360090013602360336003600900C
:1021AC000136023603361F510026205101222151DF
:1021BC0002222251032200C01FF101C020F102C0F3
:1021CC0021F103C022F11FC100F020C101F021C197
:1021DC0002F022C103F000360090013602360336BD
:1021EC0000C01FF101C020F102C021F103C022F197
:1021FC001DC1E1FF1EC1E2FF2251300FE66E1D4BE7
:10220C001E2B0001FE51000A10E1FF07FF51000ACE
:10221C000CE11DC1E1FF1EC1E2FF2E0EE66E0101B5
:10222C001D4B1E2B010E0001FE6FFD07A5D7FF0EE7
:10223C0001011D25E96EFF0E1E21EA6EEE50300ADB
:10224C0005E1010E1D5F000E1E5BF1D7FF0E1D2573
:10225C00E96EFF0E1E21EA6EEE502E0A04E1010E0D
:10226C001D5F000E1E5B0001FF51000A49E01DC1FD
:10227C00E1FF1EC1E2FF650EE66E01011D4B1E2B38
:10228C00800E0001FF19006E800E000A005C0DE24A
:10229C001DC1E1FF1EC1E2FF2D0EE66E01011D4BBB
:1022AC001E2B0001FF510008FF6FFFC0FDF0800ED8
:1022BC00090A006E800EFF19005C10E20A0E046E13
:1022CC00FDC000F093EC0CF01DC1E1FF1EC1E2FF5C
:1022DC000050300FE66E01011D4B1E2B01010A0E42
:1022EC00046EFDC000F093EC0CF008C000F01DC1B2
:1022FC00E1FF1EC1E2FF0050300FE66E1D4B1E2B9E
:0E230C001DC1E1FF1EC1E2FFE66A006A120079
:10231A00E2EC0CF09BDC000E046E000E056E000E63
:10232A00066E8A0E076E8EDC000E046E000E056EB7
:10233A00000E066E8A0E076E9EDC000E046E000EFC
:10234A00056E600E066E800E076E94EC0DF012009C
:10235A001FC15FF01CC123F11DC124F11EC125F16B
:10236A0009EC09F019C123F11AC124F11BC125F1A5
:06237A0092EC0CF01200D1
:102380000001606BFF6B026A640E025C4CE202505B
:10239000FD25E96E000EFE21EA6EEE502E0A02E1E6
:1023A000010EFF6FFF51010AD8B4602B6051030882
:1023B00038E20250FD25E96E000EFE21EA6EEE5075
:1023C000650A04E0FF51020A01E024D0040E605DBA
:1023D000006E016A000E015A0050025C006E01504E
:1023E000000E01560050FD25E16E0150FE21E26E07
:1023F0000250FD25E96E000EFE21EA6EEECFE6FFEB
:102400000250FD25E16E000EFE21E26EE66A020E2C
:10241000FF6F07D00250FD25E16E000EFE21E26E37
:08242000E66A022AB1D712009E
:10242800FDC019F1FEC01AF10D0E0001606F0A0E11
:102438000101006F3AD019C123F11AC124F13FEC10
:102448000AF03ED019C1E9FF1AC1EAFFEE520AE0CC
:1024580019C123F11AC124F13FEC0AF00101194B0B
:102468001A2BF0D72DD019C1E9FF1AC1EAFFEE5295
:102478000AE019C123F11AC124F13FEC0AF0010165
:10248800194B1A2BF0D70101600E236F000E246F31
:102498003FEC0AF0000E0101236F010E246F3FECA0
:1024A8000AF00ED0060E006E0CD00001FF51000A93
:1024B800C2E0FF51010AC6E0FF51020AD4E0F2D798
:0424C800006A120094
:1024CC000101196BCE0E1A6F260E1B6F000E1C6FBE
:1024DC008FDC100E0101196F800E1A6F250E1B6F09
:1024EC00000E1C6F1D6FAFDC090E0B6E1E0E0C6EFA
:1024FC00E40E0D6E0D2EFED70C2EFCD70B2EFAD73C
:10250C0000004F0E0001FD6F000EFE6F020EFF6FFC
:04251C0085DF120045
:102520000900F5CFE6FF0006FBE10106F9E1120024
:102530000C0E0101196F260E1A6F000E1B6FB60EDE
:102540001C6F260E1D6F000E1E6F4D0E1F6F05DFD8
:10255000290E0B6E960E0C6E7F0E0D6E0D2EFED795
:102560000C2EFCD70B2EFAD7150E0001FD6F000EB6
:0A257000FE6F020EFF6F58DF12002D
:10257A00CFDE00C06DF001C06EF002C06FF003C084
:10258A0070F000C019F101C01AF102C01BF103C0BA
:10259A001CF1810E01011D6F000E1E6F92DC810E6F
:1025AA000001FD6F000EFE6FE6DE340EFD6F000EB9
:1025BA00FE6F010EFF6F33DF810E0001FD6F000E0B
:1025CA00FE6F010EFF6F2BDF2F0E0001FD6F000E55
:1025DA00FE6F020EFF6F23DF090E0B6E1E0E0C6ECE
:1025EA00E40E0D6E0D2EFED70C2EFCD70B2EFAD74D
:0425FA0000001200CB
:0E25FE0069EC13F064DF95DFB9DFFED7FFD77D
:1026D20010EE15F04A0E006E010E016E6C0EF66ED3
:1026E200260EF76E000EF86E90EC12F010EE61F00E
:1026F200040E006E010E016ECA0EF66E260EF76E05
:0A270200000EF86E90EC12F01200C9
:10260C00980139018A0139015E013901340139011E
:10261C00260139015001390142013901A601390164
:10262C0008023901FA013901240239011602390173
:10263C00B002000088020000920200007E0200003E
:10264C009C020000A6020000BA0200001403000065
:10265C00780300006E030000640300009603000082
:10266C002061707020696E697420646F6E65200043
:04267C00494E46007D
:02268000300028
:042682000000000054
:05268600206B50610013
:10268B0070726573737572652064696666657265D1
:07269B006E6365203A200088
:0426A2004E614E0037
:1026A6002073797320696E697420646F6E652000EB
:1026B6003E070000BC040000660400005606330115
:0426C6009205330145
:0426CA00000000000C
:0426CE00A0860100E1
:020000040030CA
:0E00000015137F7CF98B91FFFFC0FFE0FF40DE
:00000001FF
